:020000040800F2
:1000000000200020990C00082D0500083505000887
:1000100000000000000000000000000000000000E0
:100020000000000000000000000000003D05000886
:10003000000000000000000047050008510500080E
:10004000E90C000800000000E90C0008E90C0008B9
:10005000E90C00087905000889050008E90C00088A
:1000600000000000E90C0008E90C0008E90C000899
:10007000E90C0008E90C0008E90C00080000000089
:10008000E90C00080000000000000000E90C000876
:1000900000000000E90C0008E90C0008E90C000869
:1000A000E90C0008E90C0008E90C0008E90C00085C
:0800B000E90C0008000000004B
:1000B80010B5064C2378002B07D1054B002B02D036
:1000C800044800E000BF0123237010BD0C0000208D
:1000D80000000000641D0008044B10B5002B03D07D
:1000E8000349044800E000BF10BDC04600000000FE
:1000F80010000020641D0008002243088B4274D3BE
:1001080003098B425FD3030A8B4244D3030B8B4210
:1001180028D3030C8B420DD3FF22090212BA030C19
:100128008B4202D31212090265D0030B8B4219D3FA
:1001380000E0090AC30B8B4201D3CB03C01A52411A
:10014800830B8B4201D38B03C01A5241430B8B4262
:1001580001D34B03C01A5241030B8B4201D30B034B
:10016800C01A5241C30A8B4201D3CB02C01A524172
:10017800830A8B4201D38B02C01A5241430A8B4235
:1001880001D34B02C01A5241030A8B4201D30B021E
:10019800C01A5241CDD2C3098B4201D3CB01C01A38
:1001A800524183098B4201D38B01C01A5241430942
:1001B8008B4201D34B01C01A524103098B4201D330
:1001C8000B01C01A5241C3088B4201D3CB00C01A9D
:1001D800524183088B4201D38B00C01A5241430815
:1001E8008B4201D34B00C01A5241411A00D201463A
:1001F800524110467047FFE701B5002000F006F8AD
:1002080002BDC0460029F7D076E770477047C04660
:1002180080B500AF00F066FD00F02CF800F072F831
:100228000D4B0E4A0E48012100F0DEF90D4B0E4A27
:100238000E48012100F0D8F9A023DB050122012195
:10024800180001F034F80A4B180000F05BFA084B6C
:10025800180000F06CFAFAE79D040008650400082D
:100268002C000020BB040008810400083C0000208A
:100278002800002090B593B000AF14243B19180053
:1002880034231A00002101F03DFD3B1D1800102306
:100298001A00002101F036FD80239B00180001F0B0
:1002A80057F83B1902221A603B1980225200DA6083
:1002B8003B1900221A613B1940225A613B1900225E
:1002C800DA613B19180001F083F8031E01D000F031
:1002D800FFF83B1D07221A603B1D00225A603B1D98
:1002E80000229A603B1D0022DA603B1D00211800A5
:1002F80001F07EFB031E01D000F0EAF8C046BD46BF
:1003080013B090BD90B589B000AF0C243B1918000C
:1003180014231A00002101F0F5FC4C4B5A6B4B4B8F
:1003280002210A435A63494B5B6B02221340BB60AC
:10033800BB68464B5A6B454B04210A435A63434BEF
:100348005B6B042213407B607B68404B5A6B3F4BCE
:1003580001210A435A633D4B5B6B012213403B600A
:100368003B683B4B00228921180000F0A0FFC02306
:100378001B0238480022190000F099FF3649A023D3
:10038800DB050022180000F092FF3B1989221A6051
:100398003B1901225A603B1900229A603B1900223E
:1003A800DA603B192A4A1900100000F0FFFD21000D
:1003B8007B18C02212021A600C003B1901225A60F5
:1003C8003B1900229A603B190022DA603B19214A46
:1003D8001900100000F0EAFD3B191F4A1A603B198A
:1003E80001225A603B1900229A603B190022DA6008
:1003F8003A19A023DB051100180000F0D7FD2100F1
:100408007B1806221A607B18842292035A607B1894
:1004180001229A607A18A023DB051100180000F069
:10042800C5FD00220021052000F08EFD052000F00A
:10043800A0FD00220021062000F086FD062000F025
:1004480098FDC046BD4609B090BDC04600100240A8
:1004580000040050000800501908000080B582B060
:1004680000AF7860034B180000F08BF9C046BD461A
:1004780002B080BD2800002080B582B000AF78604F
:10048800034B180000F088F9C046BD4602B080BD95
:100498002800002080B500AFA023DB050421180048
:1004A80000F0E8FE03005A1E9341DBB21800BD4677
:1004B80080BD80B500AFA023DB050221180000F045
:1004C800D9FE03005A1E9341DBB21800BD4680BD19
:1004D80080B500AF72B6C046C046FDE780B582B0B1
:1004E80000AF0F4B1A6C0E4B01210A431A640C4BD8
:1004F8001B6C012213407B607B68094BDA6B084B4D
:10050800802149050A43DA63054BDA6B80235B05D2
:1005180013403B603B68C046BD4602B080BDC04644
:100528000010024080B500AFC046FDE780B500AFBF
:10053800C046FDE780B500AFC046BD4680BD80B56A
:1005480000AFC046BD4680BD80B500AF064B180061
:1005580000F07AF8054B180000F076F800F02CFC53
:10056800C046BD4680BDC0462C0000203C0000208F
:1005780080B500AF022000F0B7FEC046BD4680BD82
:1005880080B500AF042000F0AFFEC046BD4680BD78
:1005980080B582B000AF0200BB1D1A80BB1D1B884E
:1005A800022B06D0042B09D1064B180000F096F850
:1005B80004E0054B180000F091F8C046C046BD465F
:1005C80002B080BD2C0000203C00002080B582B025
:1005D80000AF7860C046BD4602B080BD80B500AFB0
:1005E80000231800BD4680BD80B584B000AFF86018
:1005F8007A603B600B203B180A1C1A70FB68002BC2
:100608001AD0FB683A1812781A70FB6800225A70E0
:10061800FB6800225A607B68002B01D07A6800E0F2
:10062800074AFB689A603B68002B01D03A6800E0F3
:10063800044AFB68DA6000E0C046BD4604B080BDED
:10064800D5050008E505000890B585B000AF7860CD
:100658007B68002B3ED07B681B785A1E9341DBB227
:1006680001225340DBB21A000F243B191A701A7882
:1006780001210A401A707B685B78002B26D07B68C2
:10068800DB68984703001A003B191B78934216D180
:100698007B685B68322293420BD97B6800225A60E0
:1006A8007B6800225A707B689B687A6810009847BC
:1006B80011E07B685B685A1C7B685A600BE07B68BA
:1006C80000225A607B6800225A7004E07B6800228E
:1006D8005A6000E0C046BD4605B090BD80B582B006
:1006E80000AF78607B68002B03D07B6801225A70CA
:1006F80000E0C046BD4602B080BD80B500AFC04630
:10070800BD4680BD80B582B000AF78607B680022AE
:100718001A707B6800225A707B6802229A707B6884
:10072800180000F051F9C046BD4602B080BD80B542
:1007380084B000AF78600F217B187A6812781A703D
:100748000E203B187A6852781A707B181B78002B99
:1007580003D13B181B78002B0FD07B68180000F0E2
:1007680065F803001A007B689A707B68180000F02F
:100778002BF97B68180000F04BF8C046BD4604B062
:1007880080BD80B582B000AF78607B6801221A70A6
:10079800C046BD4602B080BD80B582B000AF78606B
:1007A8007B6801225A70C046BD4602B080BD000079
:1007B80080B582B000AF3B1D18603B1D1B785A1EE8
:1007C8009341DBB21A0080231901A023DB0518002E
:1007D80000F06DFD3B1D5B785A1E9341DBB21A0099
:1007E8000A4B0121180000F062FD3B1D9B785A1E40
:1007F8009341DBB21A00A023DB051021180000F09A
:1008080056FDC046BD4602B080BDC046000400503B
:1008180080B582B000AF78607B6800221A707B6870
:1008280000225A70C046BD4602B080BD80B584B073
:1008380000AF78600F23FB187A6892781A700E213F
:100848007B187A6812781A700D203B187A685278EB
:100858001A707B181B78002B03D13B181B78002BD0
:1008680001D0012300E00023002B01D10023A4E0E4
:100878007B689B78072B00D99CE09A00514BD318D2
:100888001B689F460D23FB181B78002B00D182E0C4
:100898000F23FB1801221A707DE00D23FB181B782B
:1008A800002B00D179E00F23FB1802221A7074E0A4
:1008B8000D23FB181B78002B03D00F23FB180022F5
:1008C8001A700E23FB181B78002B00D167E00F234A
:1008D800FB1803221A7062E00D23FB181B78002B0B
:1008E80003D00F23FB1800221A700E23FB181B7865
:1008F800002B56D00F23FB1804221A7051E00D2349
:10090800FB181B78002B03D00F23FB1800221A704A
:100918000E23FB181B78002B45D00F23FB1805224C
:100928001A7040E00D23FB181B78002B03D00F230F
:10093800FB1800221A700E23FB181B78002B34D0EA
:100948000F23FB1806221A702FE00D23FB181B78C3
:10095800002B03D00F23FB1800221A700E23FB185C
:100968001B78002B23D00F23FB1807221A701EE0D8
:100978000D23FB181B78002B03D00F23FB18002234
:100988001A700E23FB181B78002B12D00F23FB18AC
:1009980002221A700DE0C0460CE0C0460AE0C046CC
:1009A80008E0C04606E0C04604E0C04602E0C04693
:1009B80000E0C0460F23FB181B781800BD4604B0A2
:1009C80080BDC046C81D000880B58AB000AF7860F9
:1009D8007B689B78072B00D9EBE09A00774BD318FC
:1009E8001B689F4624217B18FF221A707B1800225F
:1009F8005A707B1800229A707B181868FFF7D8FE87
:100A0800012000F0E3F8012000F0F4F8012000F0E4
:100A180005F9002000F016F9012000F025F9C8E0DA
:100A280020217B18FF221A707B1800225A707B182D
:100A380000229A707B181868FFF7BAFE012000F0B0
:100A4800C5F8012000F0D6F8012000F0E7F80120F1
:100A580000F0F8F8012000F007F9AAE01C217B1843
:100A680000221A707B1800225A707B1800229A7094
:100A78007B181868FFF79CFE002000F0A7F80020FC
:100A880000F0B8F8002000F0C9F8002000F0DAF80B
:100A9800002000F0E9F88CE018203B18484A11883B
:100AA800198092789A703B181868FFF781FE002029
:100AB80000F08CF8002000F09DF8002000F0AEF85F
:100AC800002000F0BFF8002000F0CEF871E01420FC
:100AD8003B183C4A1188198092789A703B1818681C
:100AE800FFF766FE002000F071F8012000F082F8A0
:100AF800002000F093F8002000F0A4F8002000F097
:100B0800B3F856E010217B1800221A707B180022D7
:100B18005A707B18FF229A707B181868FFF748FEF6
:100B2800002000F053F8012000F064F8012000F0E4
:100B380075F8002000F086F8002000F095F838E0FD
:100B48000C217B1800221A707B18FF225A707B1820
:100B580000229A707B181868FFF72AFE002000F020
:100B680035F8012000F046F8012000F057F8002081
:100B780000F068F8002000F077F81AE008203B1829
:100B8800114A1188198092789A703B181868FFF7F3
:100B98000FFE012000F01AF8012000F02BF80120C8
:100BA80000F03CF8002000F04DF8002000F05CF860
:100BB800C046C046BD460AB080BDC046E81D000814
:100BC8007C1D0008801D0008841D000880B582B0C7
:100BD80000AF0200FB1D1A70FB1D1B7804481A00A9
:100BE800802100F064FBC046BD4602B080BDC0460F
:100BF8000004005080B582B000AF0200FB1D1A70DF
:100C0800FB1D1B7804481A00082100F050FBC04661
:100C1800BD4602B080BDC0460004005080B582B019
:100C280000AF0200FB1D1A70FB1D1A7880231B02FF
:100C38000348190000F03BFBC046BD4602B080BD2A
:100C48000008005080B582B000AF0200FB1D1A708A
:100C5800FB1D1A78A023DB050821180000F027FBEC
:100C6800C046BD4602B080BD80B582B000AF02006C
:100C7800FB1D1A70FB1D1A788023DB01034819003D
:100C880000F015FBC046BD4602B080BD000800500C
:100C98000D488546FFF731FD0C480D490D4A0023E4
:100CA80002E0D458C4500433C4188C42F9D30A4A19
:100CB8000A4C002301E013600432A242FBD301F086
:100CC80029F8FFF7A5FAFEE7002000200000002021
:100CD8000C000020101E00080C000020500000200E
:100CE800FEE7000080B582B000AFFB1D00221A703D
:100CF8000B4B1A680A4B802149000A431A600320EB
:100D080000F010F8031E03D0FB1D01221A7001E049
:100D1800FFF7E4FBFB1D1B781800BD4602B080BD41
:100D28000020024090B585B000AF78600F23FB1813
:100D380000221A701D4B1B78002B2BD01C4B1C68F3
:100D48001A4B1B781900FA239800FFF7D5F903000E
:100D580019002000FFF7D0F90300180000F019F976
:100D6800031E12D17B68032B0AD8796801235B42E2
:100D78000022180000F0E8F80E4B7A681A600DE0BF
:100D88000F23FB1801221A7008E00F23FB18012219
:100D98001A7003E00F23FB1801221A700F23FB18A7
:100DA8001B781800BD4605B090BDC046080000205D
:100DB800000000200400002080B500AF054B1B7820
:100DC8001A00054B1B68D218034B1A60C046BD4673
:100DD80080BDC046080000204C00002080B500AF50
:100DE800024B1B681800BD4680BDC0464C00002061
:100DF80080B582B000AF0200FB1D1A70FB1D1B7886
:100E08007F2B09D8FB1D1B781A001F231A40044B9F
:100E1800012191400A001A60C046BD4602B080BD5B
:100E280000E100E090B583B000AF02003960FB1D1F
:100E38001A70FB1D1B787F2B28D82F4AFB1D1B78A7
:100E48005BB29B08C0339B009B58FA1D12781100B7
:100E580003220A40D200FF2191400A00D2431A40DF
:100E680011003B689B01FF221A40FB1D1B781800EC
:100E780003230340DB009A401F48FB1D1B785BB22D
:100E88009B080A43C0339B001A5031E01B4AFB1DE4
:100E98001B7819000F230B40083B9B0806339B0067
:100EA800D31804331B68FA1D1278110003220A4074
:100EB800D200FF2191400A00D2431A4011003B683A
:100EC8009B01FF221A40FB1D1B78180003230340D7
:100ED800DB009A400948FB1D1B781C000F232340A8
:100EE800083B9B080A4306339B00C31804331A6067
:100EF800C046BD4603B090BD00E100E000ED00E053
:100F080080B582B000AF78607B685A1E80235B048E
:100F18009A4201D3012310E00A4B7A68013A5A60D9
:100F280001235B4203211800FFF77CFF054B0022D9
:100F38009A60044B07221A6000231800BD4602B0CD
:100F480080BDC04610E000E080B584B000AFB96055
:100F58007A600F217B18021C1A70BA687B181B78FC
:100F68005BB211001800FFF75DFFC046BD4604B034
:100F780080BD80B582B000AF0200FB1D1A70FB1D5A
:100F88001B785BB21800FFF733FFC046BD4602B0BE
:100F980080BD80B582B000AF78607B681800FFF72D
:100FA800AFFF03001800BD4602B080BD80B586B013
:100FB80000AF7860396000237B6147E13B681B68BC
:100FC80001217A6991400A001340FB60FB68002BFD
:100FD80000D138E13B685B6803221340012B05D040
:100FE8003B685B6803221340022B30D17B689B6807
:100FF8003B617B695B0003229A401300DA433B693B
:1010080013403B613B68DA687B695B009A401300D8
:101018003A6913433B617B683A699A607B685B680D
:101028003B6101227B699A401300DA433B69134014
:101038003B613B685B681B0901221A407B699A4047
:1010480013003A6913433B617B683A695A603B680D
:101058005B6803221340032B17D07B68DB683B6176
:101068007B695B0003229A401300DA433B69134013
:101078003B613B689A687B695B009A4013003A6958
:1010880013433B617B683A69DA603B685B6803221B
:101098001340022B23D17B69DA087B68083292005F
:1010A800D3583B617B69072213409B000F229A406B
:1010B8001300DA433B6913403B613B681A697B695B
:1010C80007210B409B009A4013003A6913433B6188
:1010D8007B69DA087B68083292003969D1507B68ED
:1010E8001B683B617B695B0003229A401300DA436B
:1010F8003B6913403B613B685B6803221A407B698C
:101108005B009A4013003A6913433B617B683A6974
:101118001A603B685A68C0239B02134000D192E0D2
:10112800504A7B699B0818339B009B583B617B693D
:1011380003221340DB000F229A401300DA433B6975
:1011480013403B617A68A023DB059A4213D07B6881
:10115800454A93420DD07B68444A934207D07B6846
:10116800434A934201D1032306E0052304E0022306
:1011780002E0012300E000237A6903210A40D2003B
:1011880093403A6913433B6136497B699B0818339E
:101198009B003A695A50334B1B683B61FB68DA4342
:1011A8003B6913403B613B685A6880235B031340EB
:1011B80003D03A69FB6813433B612A4B3A691A60CA
:1011C800284B5B683B61FB68DA433B6913403B6132
:1011D8003B685A6880239B03134003D03A69FB6835
:1011E80013433B611F4B3A695A601E4A8423D35804
:1011F8003B61FB68DA433B6913403B613B685A68D3
:1012080080239B02134003D03A69FB6813433B6178
:10121800144984223B698B50124A8023D3583B617E
:10122800FB68DA433B6913403B613B685A6880239B
:101238005B02134003D03A69FB6813433B610949D9
:1012480080223B698B507B6901337B613B681A685C
:101258007B69DA40131E00D0B0E6C046C046BD46E2
:1012680006B080BD0018024000040050000800507D
:10127800000C005080B584B000AF78600A00BB1C39
:101288001A807B681B69BA1C1288134004D00F238C
:10129800FB1801221A7003E00F23FB1800221A70B2
:1012A8000F23FB181B781800BD4604B080BD80B51D
:1012B80082B000AF786008001100BB1C021C1A80C5
:1012C8007B1C0A1C1A707B1C1B78002B04D0BB1CCF
:1012D8001A887B689A6103E0BB1C1A887B689A624B
:1012E800C046BD4602B080BD80B582B000AF0200E6
:1012F800BB1D1A80104BDB68BA1D1288134008D03A
:101308000D4BBA1D1288DA60BB1D1B88180000F04F
:1013180015F8094B1B69BA1D1288134008D0064BF3
:10132800BA1D12881A61BB1D1B881800FFF730F917
:10133800C046BD4602B080BD0018024080B582B0EC
:1013480000AF0200BB1D1A80C046BD4602B080BD7A
:1013580080B584B000AF7860194B1B68194A1340F8
:101368001900174B7A680A431A607A6880239B0031
:101378009A421FD1144B1A6813005B009B185B003C
:1013880012491800FEF7B8FE03000133FB6008E0BD
:10139800FB68002B03D0FB68013BFB6001E00323E3
:1013A80009E0074B5A698023DB001A408023DB00E1
:1013B8009A42EDD000231800BD4604B080BDC04657
:1013C80000700040FFF9FFFF0000002040420F00BE
:1013D80080B588B000AF78607B68002B01D101230D
:1013E800F3E27B681B680122134000D17CE0C34B09
:1013F8009B6838221340BB61C04BDB680322134053
:101408007B61BB69102B02D17B69032B02D0BB69BE
:10141800082B0BD1B94B1A6880239B02134062D06A
:101428007B685B68002B5ED10123CEE27B685A683B
:1014380080235B029A4207D1B04B1A68AF4B8021D8
:1014480049020A431A6020E07B685A68A023DB023D
:101458009A420ED1A94B1A68A84B8021C9020A43A7
:101468001A60A64B1A68A54B802149020A431A60E4
:101478000BE0A24B1A68A14BA1490A401A609F4B86
:101488001A689E4B9F490A401A607B685B68002B6C
:1014980014D0FFF7A3FC03003B6108E0FFF79EFCB4
:1014A80002003B69D31A642B01D903238DE2934BC5
:1014B8001A6880239B021340F0D015E0FFF78EFCDA
:1014C80003003B6108E0FFF789FC02003B69D31A7F
:1014D800642B01D9032378E2884B1A6880239B0286
:1014E8001340F0D100E0C0467B681B68022213401D
:1014F80000D199E0814B9B6838221340BB617F4B38
:10150800DB68032213407B61BB69102B02D17B6926
:10151800022B02D0BB69002B35D1784B1A68802387
:10152800DB00134005D07B68DB68002B01D1012369
:101538004BE2724B5B68744A134019007B685B6925
:101548001A026E4B0A435A60BB69002B12D16B4BCF
:101558001B686E4A134019007B681A69674B0A4377
:101568001A60664B1B68DB0A07221340684ADA4098
:10157800684B1A60684B1B681800FFF7D3FB031E03
:1015880051D0012321E27B68DB68002B30D05B4B14
:101598001B685E4A134019007B681A69574B0A4357
:1015A8001A60564B1A68554B802149000A431A6045
:1015B800FFF714FC03003B6108E0FFF70FFC020093
:1015C8003B69D31A022B01D90323FEE14B4B1A685E
:1015D8008023DB001340F0D0484B5B684A4A134035
:1015E80019007B685B691A02444B0A435A601BE086
:1015F800424B1A68414B49490A401A60FFF7EEFB13
:1016080003003B6108E0FFF7E9FB02003B69D31ADE
:10161800022B01D90323D8E1384B1A688023DB0059
:101628001340F0D100E0C0467B681B6808221340D5
:1016380047D0324B9B6838221340182B0AD12F4BC6
:101648001B6E022213403CD07B689B69002B38D16B
:101658000123BAE17B689B69002B19D0274B1A6ECE
:10166800264B01210A431A66FFF7B8FB03003B61CA
:1016780008E0FFF7B3FB02003B69D31A022B01D93C
:101688000323A2E11D4B1B6E02221340F1D018E088
:101698001A4B1A6E194B01218A431A66FFF79EFBF3
:1016A80003003B6108E0FFF799FB02003B69D31A8E
:1016B800022B01D9032388E1104B1B6E0222134031
:1016C800F1D17B681B680422134000D1C6E01F23B8
:1016D800FB1800221A70094B9B6838221340202BF4
:1016E8001ED1064BDB6D0222134000D1B6E07B68A9
:1016F8009B68002B00D0B1E0012366E10010024096
:10170800FFFFFEFFFFFFFBFFFF80FFFFFFC7FFFF9D
:101718000024F4000000002004000020FFFEFFFF6A
:10172800AC4BDA6B80235B05134001D1012300E049
:101738000023002B11D0A74BDA6BA64B802149055B
:101748000A43DA63A34BDA6B80235B051340FB6023
:10175800FB681F23FB1801221A709F4B1A6880230D
:101768005B0013401AD19C4B1A689B4B802149009F
:101778000A431A60FFF732FB03003B6108E0FFF7FA
:101788002DFB02003B69D31A022B01D903231CE16C
:10179800914B1A6880235B001340F0D07B689B68EC
:1017A800012B06D18B4BDA6D8A4B01210A43DA658E
:1017B8001CE07B689B68052B0CD1864BDA6D854B4A
:1017C80004210A43DA65834BDA6D824B01210A430F
:1017D800DA650BE07F4BDA6D7E4B01218A43DA65CF
:1017E8007C4BDA6D7B4B04218A43DA657B689B6806
:1017F800002B14D0FFF7F2FA03003B6109E0FFF772
:10180800EDFA02003B69D31A744A934201D90323C3
:10181800DBE0704BDB6D02221340F0D013E0FFF7E2
:10182800DDFA03003B6109E0FFF7D8FA02003B69E3
:10183800D31A6A4A934201D90323C6E0654BDB6D8C
:1018480002221340F0D11F23FB181B78012B05D16E
:10185800604BDA6B5F4B62490A40DA637B68DB698D
:10186800002B00D1B0E05B4B9B6838221340102B53
:1018780000D178E07B68DB69022B53D1554B1A689D
:10188800544B58490A401A60FFF7A8FA03003B6115
:1018980008E0FFF7A3FA02003B69D31A022B01D92B
:1018A800032392E04B4B1A6880239B041340F0D12A
:1018B800484BDB684C4A134019007B681A6A7B68FE
:1018C8005B6A1A437B689B6A1B021A437B68DB6A64
:1018D8001A437B681B6B1A433E4B0A43DA603D4B45
:1018E8001A683C4B802149040A431A60394BDA686C
:1018F800384B802149050A43DA60FFF76FFA030085
:101908003B6108E0FFF76AFA02003B69D31A022B31
:1019180001D9032359E02F4B1A6880239B041340F5
:10192800F0D051E02B4B1A682A4B2E490A401A6016
:10193800FFF754FA03003B6108E0FFF74FFA020093
:101948003B69D31A022B01D903233EE0214B1A68C5
:1019580080239B041340F0D11E4BDA681D4B2349AA
:101968000A40DA6030E07B68DB69012B01D1012392
:101978002BE0184BDB687B617B6903221A407B688C
:101988001B6A9A421ED17B6970221A407B685B6A87
:101998009A4217D17A69FE23DB011A407B689B6A59
:1019A8001B029A420ED17A69F8239B031A407B687E
:1019B800DB6A9A4206D17B695B0F5A077B681B6B0F
:1019C8009A4201D0012300E000231800BD4608B068
:1019D80080BDC0460010024000700040881300001F
:1019E800FFFFFFEFFFFFFFFE8C80C11FFCFFFEEF34
:1019F80080B584B000AF786039607B68002B01D176
:101A08000123E9E0764B1B68072213403A689A42A3
:101A18001ED9734B1B68072293431900704B3A6811
:101A28000A431A60FFF7DAF90300FB6009E0FFF7E1
:101A3800D5F90200FB68D31A6A4A934201D90323F5
:101A4800CAE0674B1B68072213403A689A42EED1F6
:101A58007B681B680222134015D07B681B68042230
:101A6800134006D0604B9A685F4BE021C9010A43D6
:101A78009A605D4B9B685D4A134019007B689A68C1
:101A8800594B0A439A607B681B680122134057D060
:101A98007B685B68012B07D1534B1A6880239B0234
:101AA80013402BD1012397E07B685B68022B07D199
:101AB8004D4B1A6880239B0413401FD101238BE0F0
:101AC8007B685B68002B07D1474B1A688023DB00D3
:101AD800134013D101237FE07B685B68032B06D199
:101AE800414B1B6E0222134008D1012374E03E4B88
:101AF800DB6D0222134001D101236DE03A4B9B6854
:101B08000722934319007B685A68374B0A439A6047
:101B1800FFF764F90300FB6009E0FFF75FF90200D3
:101B2800FB68D31A2F4A934201D9032354E02E4B62
:101B38009B6838221A407B685B68DB009A42ECD1CC
:101B4800274B1B68072213403A689A421ED2244B3F
:101B58001B68072293431900214B3A680A431A600D
:101B6800FFF73CF90300FB6009E0FFF737F90200D3
:101B7800FB68D31A1B4A934201D903232CE0184B64
:101B88001B68072213403A689A42EED17B681B68AB
:101B98000422134009D0144B9B68154A13401900BE
:101BA8007B68DA68104B0A439A6000F029F8010054
:101BB8000D4B9B681B0A0F221A400E4B9200D358FC
:101BC8001F2213400A00DA400B4B1A600B4B1B68AC
:101BD8001800FFF7A7F803001800BD4604B080BD41
:101BE800002002408813000000100240FFF0FFFFB1
:101BF800FF8FFFFF881D0008000000200400002060
:101C080080B586B000AF3C4B9B68382213400FD19B
:101C1800394B1B68DB0A0722134001229A40130044
:101C28003B6039683548FEF767FA03003B615DE0C1
:101C3800314B9B6838221340082B02D1304B3B6153
:101C480054E02D4B9B6838221340102B38D12A4B77
:101C5800DB6803221340FB60274BDB681B09072264
:101C680013400133BB60FB68032B0DD1B9682448CE
:101C7800FEF742FA030019001F4BDB681B0A7F229C
:101C880013404B437B610DE0B9681C48FEF734FAFA
:101C980003001900184BDB681B0A7F2213404B43D3
:101CA8007B61C046144BDB685B0F0722134001338E
:101CB8007B6079687869FEF71FFA03003B6115E0DD
:101CC8000D4B9B6838221340202B03D180231B0225
:101CD8003B610BE0084B9B6838221340182B03D15B
:101CE800FA23DB013B6101E000233B613B691800FB
:101CF800BD4606B080BDC046001002400024F40076
:101D080000127A0003008218934200D170471970BC
:101D18000133F9E770B500260C4C0D4D641BA41077
:101D2800A64209D1002600F019F80A4C0A4D641B96
:101D3800A410A64205D170BDB300EB5898470136F0
:101D4800EEE7B300EB5898470136F2E7081E0008A3
:101D5800081E00080C1E0008081E0008F8B5C0463A
:101D6800F8BC08BC9E467047F8B5C046F8BC08BC2D
:041D78009E467047CC
:101D7C00FFFFFF0000FFFF00FF00FF00000000005E
:101D8C000000000000000000000000000000000047
:101D9C000000000000000000000000000100000036
:101DAC000200000003000000040000000600000018
:101DBC000700000008000000090000008C08000863
:101DCC00A2080008B8080008E00800080609000886
:101DDC002C0900085209000878090008EC090008D1
:101DEC00280A0008640A0008A00A0008D60A00089D
:0C1DFC000C0B0008480B0008840B0008CA
:041E0800E1000008ED
:041E0C00B900000811
:0C1E10000024F4000400000001000000A9
:0400000508000C994A
:00000001FF
