:020000040800F2
:100000007806002065010008990E0008B50D00086B
:1000100000000000000000000000000000000000E0
:100020000000000000000000000000009D0E00081D
:1000300000000000000000009B0E00089F0E00085A
:100040007701000800000000770100087701000830
:1000500077010008A3030008AD030008770100083A
:100060000000000077010008770100087701000810
:100070007701000877010008770100080000000000
:100080007701000800000000000000007701000870
:1000900000000000770100087701000877010008E0
:1000A0007701000877010008770100087701000850
:1000B00077010008000000000000000000000000C0
:1000C00000F002F800F03EF80CA030C80838241800
:1000D0002D18A246671EAB4654465D46AC4201D180
:1000E00000F030F87E460F3E0FCCB6460126334274
:1000F00000D0FB1AA246AB46334318478C110000D0
:10010000AC110000103A02D378C878C1FAD852076F
:1001100001D330C830C101D504680C6070470000BD
:100120000023002400250026103A01D378C1FBD813
:10013000520700D330C100D50B6070471FB51FBDFB
:1001400010B510BD00F0FAF81146FFF7F7FF00F008
:1001500007FF00F012F903B4FFF7F2FF03BC00F051
:1001600019F900000748804707480047FEE7FEE707
:10017000FEE7FEE7FEE7FEE704480549054A064BB1
:1001800070470000010F0008C1000008780000203F
:1001900078060020780200207802002001E004C0E8
:1001A000091F0429FBD28B0701D50280801CC907D7
:1001B00000D00270704700290BD0C30702D0027034
:1001C000401C491E022904D3830702D50280801CEB
:1001D000891EE3E70022EEE70022DFE700220309A1
:1001E0008B422CD3030A8B4211D300239C464EE052
:1001F00003460B433CD4002243088B4231D303090E
:100200008B421CD3030A8B4201D394463FE0C309BF
:100210008B4201D3CB01C01A524183098B4201D3D7
:100220008B01C01A524143098B4201D34B01C01AC2
:10023000524103098B4201D30B01C01A5241C3083A
:100240008B4201D3CB00C01A524183088B4201D3A9
:100250008B00C01A524143088B4201D34B00C01A95
:100260005241411A00D201465241104670475DE0AA
:10027000CA0F00D04942031000D34042534000222D
:100280009C4603098B422DD3030A8B4212D3FC22D6
:10029000890112BA030A8B420CD3890192118B4255
:1002A00008D3890192118B4204D389013AD092116B
:1002B00000E08909C3098B4201D3CB01C01A524126
:1002C00083098B4201D38B01C01A524143098B42EF
:1002D00001D34B01C01A524103098B4201D30B01D8
:1002E000C01A5241C3088B4201D3CB00C01A5241FD
:1002F00083088B4201D38B00C01A5241D9D24308E4
:100300008B4201D34B00C01A5241411A00D2014620
:10031000634652415B10104601D34042002B00D58A
:100320004942704763465B1000D3404201B500204C
:10033000C046C04602BD704770477047754600F022
:1003400025F8AE46050069465346C008C0008546FC
:1003500018B020B5FFF710FF60BC00274908B6466B
:100360000026C0C5C0C5C0C5C0C5C0C5C0C5C0C5C4
:10037000C0C5403D49008D46704710B50446C04693
:10038000C0462046FFF7E7FE10BD0000004870475A
:100390001800002001491820ABBEFEE7260002002D
:1003A000704710B5022000F0B3F810BD10B504205E
:1003B00000F0AEF810BD000070B5044600F072F910
:1003C0000546601C02D004480078241800F06AF941
:1003D000401BA042FAD370BD08000020F8B50022EF
:1003E0004849022807D0042804D14878052810D2AB
:1003F000401C4870F8BD087805240127424E2407A8
:10040000FF02424D002806D0012827D002280A709A
:100410004FD04A70F8BD012008704A60024601467C
:10042000304600F039F900221021204600F034F95E
:1004300000223946204600F02FF901228021304663
:1004400000F02AF901220821304600F025F90122A6
:10045000D103284600F020F901224BE00220087069
:1004600001221146304600F017F9002210212046E3
:1004700000F012F900223946204600F00DF9012261
:100480008021304600F008F901220821304600F0B2
:1004900003F90122D103284600F0FEF8012291035E
:1004A000284600F0F9F801220821204600F0F4F86F
:1004B000F8BD4A7000220121304600F0EDF800221C
:1004C0001021204600F0E8F800223946204600F0CE
:1004D000E3F800228021304600F0DEF800220821F7
:1004E000304600F0D9F801210022C903284600F067
:1004F000D3F8002201218903284600F0CDF800221C
:10050000D2E7000000000020000400500008005066
:1005100070B5084D0446E868204203D0EC602046E0
:1005200000F00AF82869204203D02C612046FFF72A
:1005300055FF70BD0018024070470000F0B5002361
:1005400003249AE02A4601259D402A407ED00E7958
:10055000B607B60F012E01D0022E16D186682746A7
:10056000B4465E00B646B7406646BE43B446CF6862
:100570007646B7406646374387604668AE430D7996
:10058000ED06ED0F9D40354345600D79ED43AD0718
:1005900008D0C5685F002646BE40B5438E68BE40A1
:1005A0002E43C6600D79AD07AD0F022D0ED1DD08CB
:1005B000AD002D18AC462D6A5E07F60E0F27B7402A
:1005C000BD430F69B7402F4365462F6205685F0042
:1005D0002646BE40B5430E79B607B60FBE402E4341
:1005E00006604D68AD03AD0F46D09E08264DB6009F
:1005F0007519AC462D6E9E07F60E0F27B740BD430A
:1006000005273F07B84201D100270FE01F4FB8422E
:1006100001D101270AE01E4FB84201D1022705E0AF
:100620001C4FB84201D1032700E00527B7402F43F4
:10063000154D664637662D684E689543F60200D51F
:100640001543114F3D607D68954300E014E04E680E
:10065000B60200D515437D600B4D80356E684F683E
:100660009643BF0300D516436E602E684F689643CD
:10067000FF0300D516432E605B1C0A681546DA405E
:1006800000D05FE7F0BD00000018024000040050F9
:1006900000080050000C0050002A01D08161704712
:1006A00081627047014880687047000008000020A0
:1006B000024881680278891881607047080000202C
:1006C00010B5084800240168821511430160032019
:1006D00000F00AF8002801D0012401E000F028F819
:1006E000204610BD0020024070B50F4E0024317826
:1006F0000546002915D07D20C000FFF76FFD01469B
:100700000A480068FFF76AFD00F03CFB002808D1AA
:10071000042D06D200222946401E00F02BF87560F9
:1007200000E00124204670BD0800002014000020D5
:1007300008B50948016801221143016000681040B2
:10074000009005484038C26B01040A43C263C06B85
:100750000840009008BD000040100240002805DB62
:10076000C106C90E01208840014908607047000099
:1007700000E100E010B500F0D1FB10BD10B50F4C4A
:10078000216803225202914301432160C11FFF39B6
:10079000FA390ED10A480621006848430949FFF793
:1007A0001DFD401C02E0002805D0401E616949057E
:1007B000F9D4002010BD032010BD000000700040DF
:1007C0001400002040420F00F8B50F46060043D049
:1007D0004D4D28684007400FB84213D22868C00822
:1007E000C00038432860FFF75DFF044605E0FFF7CF
:1007F00059FF011B4548814261D828684007400FD6
:10080000B842F4D13068424C81070DD5400704D579
:10081000A068072109030843A060A0680F2109020E
:100820008843B1680843A0603078C00732D0706850
:1008300001280AD002280BD000280FD034494031BB
:1008400003280ED0C969890704E02168890301E003
:1008500021688901002906DB0120F8BD21684905CE
:10086000F8E7096AEFE7A168C908C9000143A16078
:10087000FFF718FF009006E0FFF714FF0099411AF8
:10088000224881421BD8A068382108407168C900FD
:100890008842F1D128684007400FB84217D91A485A
:1008A0000168C908C90039430160FFF7FBFE05462E
:1008B00007E0FFF7F7FE411B1448814201D90320EE
:1008C000F8BD114800684007400FB842F1D13078B8
:1008D000400706D5A068072109038843F16808434B
:1008E000A06000F01DF8A1683C2289091140094A66
:1008F000515CC906C90EC84007490860074800682E
:10090000FFF7F2FEF8BD000000200240881300004F
:100910000010024048120008140000200C000020C3
:1009200010B5204CA068204A8006400F16D0A06861
:100930008006410F501001290FD0A1688906490F88
:10094000022912D0A0688006400F042823D0A06896
:100950008006400F032821D0002010BD206801210F
:100960008004400F8140104612E0E1688B07E16887
:100970009B0F4906490F491C032B00D01046FFF777
:100980002DFCE1684904490E4843E168490F491CC0
:10099000FFF724FC10BD0120C00310BD7D20000224
:1009A00010BD0000001002400024F400F8B504005F
:1009B0007ED020783827C007E94D002846D0A868A7
:1009C000E96838408907890F102802D008280BD021
:1009D00001E0032908D001206268000482420AD1A4
:1009E00029680143296015E0286880032ED56068D6
:1009F0000028DDD02AE0052301211B0489049A4246
:100A00002A6802D10A432A60EAE782432A602868FA
:100A100088432860606800280CD0FFF743FE064634
:100A200004E0FFF73FFE801B642873D8286880032A
:100A3000F7D50BE0FFF736FE064604E0FFF732FE7F
:100A4000801B6428F1D828688003F7D420788007B9
:100A500069D5A868E96838408A070721920FC9025A
:100A6000102802D0002813D001E0022A10D0E0683C
:100A7000002846D0286888432169084328602868F0
:100A8000FF21013108432860FFF70CFE06462CE0E9
:100A90002A68520502D5E268002A89D06A687F2355
:100AA0001B029A4363691B021A436A60002800E034
:100AB0008DE00ED1286888432169084328602868A2
:100AC00001218004400F8140A648FFF787FBA6491B
:100AD0000860A6480068FFF707FE002877D122E0EB
:100AE000FFF7E0FD801B02289FD828684005F7D556
:100AF00068687F21090288436169090208436860C8
:100B000011E02968FF20013081432960FFF7CAFD09
:100B1000064605E098E0FFF7C5FD801B022884D853
:100B200028684005F7D42078914E00072ED5A86894
:100B30008006400F03280AD0A0690028306A16D02A
:100B4000012108433062FFF7ADFD07460BE0306A34
:100B500080071BD5A06900289FD017E0FFF7A2FDF2
:100B6000C01B022870D8306A8007F7D50EE0400815
:100B700040003062FFF796FD074604E0FFF792FD64
:100B8000C01B022860D8306A8007F7D4207840075D
:100B90006CD5A86800278006400F042818D0E86BA1
:100BA000C00008D4E96B012000070143E963E96B49
:100BB0000140012700916F480168C90519D40168F7
:100BC000821511430160FFF76DFD00900DE083E099
:100BD000F06980074AD5A06800287DD046E0FFF77D
:100BE00061FD0099401A02282ED862480068C005AD
:100BF000F5D5A168012910D004200529F16911D08B
:100C000049084900F161F1698143F161A068002858
:100C100016D0FFF747FD00900EE0F0690121084370
:100C2000F061F3E70143F161F7E7FFF73BFD00995E
:100C3000411A5148814265D8F0698007F5D50EE028
:100C4000FFF730FD009007E05CE0FFF72BFD009917
:100C5000411A4948814255D8F0698007F5D4002FE0
:100C600004D0E96B012000078143E963E0690028B3
:100C700073D0A9688906490F02294DD0012636068E
:100C80000228286805D0B0432860FFF70BFD044612
:100C90003AE0B0432860FFF705FD074604E0FFF7A0
:100CA00001FDC01B02282DD828688001F7D4616A95
:100CB000206AA26A0843E16A120211430843216BC9
:100CC0000843E9682D4A11400843E860286830432A
:100CD0002860E868012100E03DE009070843E8607A
:100CE000FFF7E0FC044604E0FFF7DCFC001B0228F1
:100CF00008D828688001F7D52FE0FFF7D3FC001B48
:100D0000022801D90320F8BD28688001F5D4E868DD
:100D10001B490840E86020E00128F4D0E868226A16
:100D20008107890F914216D17021626A0140914278
:100D300011D17F21A26A09020140120291420AD117
:100D40001F214904E26A0140914204D1400F216B06
:100D50004007884201D00120F8BD0020F8BD000006
:100D6000001002400024F400140000200C000020B9
:100D70004010024000700040881300008C80C11FAA
:100D8000FCFFFEEF094910B5401E884201D9012041
:100D900010BD074C60610321081F00F0BFF8002060
:100DA000A06107202061002010BD0000FFFFFF00B0
:100DB00000E000E0FEE70000F0B587B014216846CF
:100DC000FFF70AFA3048426B02210A434263426B42
:100DD0000A400592426B04210A434263426B0A4077
:100DE0000592416B012529434163406B0022284055
:100DF000059089212548FFF74FFC0326B603002202
:100E000031462348FFF748FC224F0520002239468F
:100E10000007FFF741FC89200024009002946946F6
:100E2000019503941948FFF789FB02946946184815
:100E3000009601950394FFF781FB05200294694613
:100E40000007009701950394FFF778FB06200090B8
:100E50002120000401900520694602940007FFF755
:100E60006DFB002211460520FFF784FC0520FFF7EB
:100E700075FC002211460620FFF77CFC0620FFF7D8
:100E80006DFC07B0F0BD00000010024000040050EF
:100E90000008005019080000FEE77047704710B5C1
:100EA000FFF706FC10BD10B592B034216846FFF77D
:100EB00093F9002401200D940E940F944002109495
:100EC000FFF75CFC02200090C001039040200590D9
:100ED000049407946846FFF769FD002801D072B6B4
:100EE000FEE707200D900E940F94002110940DA89A
:100EF000FFF76AFC002801D072B6FEE712B010BD01
:100F0000704730B47446641E2578641CAB4200D22E
:100F10001D46635D5B00E31830BC18478307FF2262
:100F2000DB0E9A408907090E9940002808DB8308E8
:100F300009489B001B1818689043084318607047C5
:100F40000007000F0838830804489B001B18D86965
:100F500090430843D861704700E400E000ED00E0F2
:100F6000FFF7AEFBFFF79FFFFFF726FF05240122E7
:100F7000240711462046FFF78FFBAE4D0122114694
:100F80002846FFF789FB012210212046FFF784FB4A
:100F90000122D70239462046FFF77EFB002280213E
:100FA0002846FFF779FB002208212846FFF774FB4B
:100FB000A14E002269013046FFF76EFB0022290195
:100FC0003046FFF769FB002208212046FFF764FB4B
:100FD0003220FFF7F1F9002201212846FFF75CFBE0
:100FE000002210212046FFF757FB002239462046F9
:100FF000FFF752FB914F397800290DD07868401CDB
:10100000786001296FD002296ED000203870787086
:101010006320FFF7D1F9EEE7787800280CD001289B
:1010200016D002283DD0032851D004285DD00528D1
:101030006DD006287ED0C6E0002201212846FFF7A9
:101040002BFB002210212046FFF726FB00220AE09E
:10105000012211462846FFF71FFB012210212046DE
:10106000FFF71AFB01220121C9022046FFF714FBFA
:10107000002280212846FFF70FFB00220821284686
:10108000FFF70AFB00220121C9033046FFF704FBEA
:101090000121002289033046FFF7FEFA00220821D1
:1010A0007DE0002201212846FFF7F6FA01221021F7
:1010B0002046FFF7F1FA0122D1022046FFF7ECFAB1
:1010C000002280212846FFF7E7FA0122D6E7002216
:1010D00001212846FFF7E0FA002210212046FFF701
:1010E000DBFA01220CE070E071E0002201212846C9
:1010F000FFF7D2FA012210212046FFF7CDFA002295
:101100000121C9022046FFF7C7FA00220FE00122A1
:1011100011462846FFF7C0FA002210212046FFF7AB
:10112000BBFA0122D1022046FFF7B6FA0122802144
:10113000284600E008E0FFF7AFFA01220821284620
:10114000FFF7AAFA01229EE7B878401CC0B2B87037
:101150000300FFF7D6FE0C38072F092F152F172F86
:10116000282F3638012200E0002201212846FFF70F
:1011700093FA012210212046FFF78EFA01220CE09B
:10118000002211E0002201212846FFF785FA012202
:1011900010212046FFF780FA00220121C9022046D3
:1011A000FFF77AFA0FE0012201212846FFF774FACF
:1011B0000022DFE7002201212846FFF76DFA002216
:1011C000E6E70020B870812023E71D4900E01D49B3
:1011D000884200D81CE70020387078700246012150
:1011E0002846FFF759FA002210212046FFF754FA4B
:1011F00001210022C9022046FFF74EFA0022802179
:101200002846FFF749FA002208212846FFF744FA4A
:1012100001210022C9033046FFF73EFA01210022D6
:1012200089033046FFF738FA002208212046FFF7ED
:1012300033FAEDE6000400500008005000000020E2
:1012400050460000A08C00000000000000000000DC
:10125000000000000000000000000000000000008E
:10126000000000000000000001000000020000007B
:10127000030000000400000006000000070000005A
:101280000800000009000000A8120008000000206B
:101290001800000004010008C01200081800002017
:1012A00060060000200100080000000000000000AF
:1012B0000100000004000000000000000024F40011
:04000005080000C12E
:00000001FF
