:020000040800F2
:1000000000200020950900080905000811050008D6
:1000100000000000000000000000000000000000E0
:1000200000000000000000000000000019050008AA
:100030000000000000000000230500082D05000856
:10004000E509000800000000E5090008E5090008CE
:10005000E509000869050008A1050008E509000890
:1000600000000000E5090008E5090008E5090008AE
:10007000E5090008E5090008E5090008000000009E
:10008000E50900080000000000000000E509000884
:1000900000000000E5090008E5090008E50900087E
:1000A000E5090008E5090008E5090008E509000878
:0800B000E50900080000000052
:1000B80010B5064C2378002B07D1054B002B02D036
:1000C800044800E000BF0123237010BD0C0000208D
:1000D800000000003C1A0008044B10B5002B03D0A8
:1000E8000349044800E000BF10BDC04600000000FE
:1000F800100000203C1A0008002243088B4274D3E9
:1001080003098B425FD3030A8B4244D3030B8B4210
:1001180028D3030C8B420DD3FF22090212BA030C19
:100128008B4202D31212090265D0030B8B4219D3FA
:1001380000E0090AC30B8B4201D3CB03C01A52411A
:10014800830B8B4201D38B03C01A5241430B8B4262
:1001580001D34B03C01A5241030B8B4201D30B034B
:10016800C01A5241C30A8B4201D3CB02C01A524172
:10017800830A8B4201D38B02C01A5241430A8B4235
:1001880001D34B02C01A5241030A8B4201D30B021E
:10019800C01A5241CDD2C3098B4201D3CB01C01A38
:1001A800524183098B4201D38B01C01A5241430942
:1001B8008B4201D34B01C01A524103098B4201D330
:1001C8000B01C01A5241C3088B4201D3CB00C01A9D
:1001D800524183088B4201D38B00C01A5241430815
:1001E8008B4201D34B00C01A5241411A00D201463A
:1001F800524110467047FFE701B5002000F006F8AD
:1002080002BDC0460029F7D076E770477047C04660
:1002180080B500AF00F0E4FB00F018F800F05EF8DD
:10022800FA235900074B0522180000F003F9064B82
:10023800180000F061FA034B180000F00EF9C046F0
:10024800F5E7C0463C0000202800002090B593B098
:1002580000AF14243B19180034231A00002101F0C0
:10026800BDFB3B1D180010231A00002101F0B6FB4E
:1002780080239B00180000F0D7FE3B1902221A6069
:100288003B1980225200DA603B1900221A613B199F
:1002980040225A613B190022DA613B19180000F02C
:1002A80003FF031E01D000F001F93B1D07221A606D
:1002B8003B1D00225A603B1D00229A603B1D002214
:1002C800DA603B1D0021180001F0FEF9031E01D081
:1002D80000F0ECF8C046BD4613B090BD90B589B0AB
:1002E80000AF0C243B19180014231A00002101F058
:1002F80075FB4C4B5A6B4B4B02210A435A63494BD3
:100308005B6B02221340BB60BB68464B5A6B454B84
:1003180004210A435A63434B5B6B042213407B60FE
:100328007B68404B5A6B3F4B01210A435A633D4B54
:100338005B6B012213403B603B683B4B00228921E9
:10034800180000F015FEC0231B02384800221900CF
:1003580000F00EFE3649A023DB050022180000F04D
:1003680007FE3B1989221A603B1901225A603B1982
:1003780000229A603B190022DA603B192A4A1900C8
:10038800100000F091FC21007B18C02212021A60B4
:100398000C003B1901225A603B1900229A603B1954
:1003A8000022DA603B19214A1900100000F07CFC99
:1003B8003B191F4A1A603B1901225A603B19002257
:1003C8009A603B190022DA603A19A023DB05110074
:1003D800180000F069FC21007B1806221A607B18BF
:1003E800842292035A607B1800229A607A18A0230C
:1003F800DB051100180000F057FC00220021052041
:1004080000F020FC052000F032FC0022002106202C
:1004180000F018FC062000F02AFCC046BD4609B0D2
:1004280090BDC04600100240000400500008005073
:100438001908000080B584B000AFF860B9607A6030
:10044800FB6800221A70FB68BA689A60FB687A68D1
:10045800DA60C046BD4604B080BD80B582B000AF4A
:1004680078607B681A697B68DB689A4202D17B688E
:1004780000221A707B685A687B689B689A4211D37D
:100488007B681B7801225340DBB2002B0AD07B68C3
:1004980001221A707B6800225A607B681B695A1C0B
:1004A8007B681A61C046BD4602B080BD80B500AF0A
:1004B80072B6C046C046FDE780B582B000AF0F4BAC
:1004C8001A6C0E4B01210A431A640C4B1B6C012257
:1004D80013407B607B68094BDA6B084B8021490528
:1004E8000A43DA63054BDA6B80235B0513403B60F4
:1004F8003B68C046BD4602B080BDC0460010024001
:1005080080B500AFC046FDE780B500AFC046FDE747
:1005180080B500AFC046BD4680BD80B500AFC046BF
:10052800BD4680BD80B500AF0C4B5B78002B04D076
:100538000A4B5B685A1C094B5A60084B5B78002BC6
:1005480006D0064B5B68002B02D0044B00225A6091
:1005580000F0B0FAC046BD4680BDC0463C00002051
:1005680080B500AF022000F021FD0A4BDB68002BAC
:1005780007D1084B9B68042B03DD064B01229A60C8
:1005880005E0044B9B685A1C024B9A60C046C04663
:10059800BD4680BD2800002080B500AF042000F0D3
:1005A80005FD0B4BDB68022B02DD094B0122DA60EB
:1005B800074BDB685A1C064BDA60054B9B68002B1F
:1005C80002D0034B00229A60C046BD4680BDC0469B
:1005D8002800002080B500AFC046BD4680BD80B56C
:1005E80082B000AF78607B689B687A68527C9342DF
:1005F80009D07B689B68DAB27B685A747B685B7C3D
:10060800180000F0D5F8C046BD4602B080BD80B5E0
:1006180082B000AF78607B68DB687A68127C9342AE
:1006280009D07B68DB68DAB27B681A747B681B7C4C
:10063800180000F071F8C046BD4602B080BD000049
:1006480080B582B000AF0200FB1D1A70BB1D0A1CEA
:100658001A7000F007F9FB1D1B78052B42D89A0089
:10066800234BD3181B689F46BB1D1A78802319019A
:10067800A023DB05180000F07BFCBB1D1B781D4880
:100688001A00012100F074FC2DE0BB1D1A788023AC
:100698001901A023DB05180000F06AFCBB1D1A78BD
:1006A800A023DB051021180000F062FC1BE0BB1D35
:1006B8001A7880231901A023DB05180000F058FCE4
:1006C80011E0BB1D1A78A023DB051021180000F0EB
:1006D8004FFC08E0BB1D1B7806481A00012100F0FA
:1006E80047FC00E0C046C046BD4602B080BDC046DB
:1006F800941A00080004005080B582B000AF7860FA
:100708007B681800FFF76BFF7B681800FFF77FFF17
:10071800C046BD4602B080BD80B582B000AF0200C1
:10072800FB1D1A70FB1D1B78032B2AD039DC022B0A
:1007380016D036DC002B36D0012B00D031E0012159
:100748000520FFF77DFF012000F0ACF8012000F044
:10075800BDF8012000F0CEF8002000F0DFF823E01B
:1007680001210520FFF76CFF012000F09BF8012014
:1007780000F0ACF8012000F0BDF8012000F0CEF840
:1007880012E001210020FFF75BFF002000F08AF84B
:10079800002000F09BF8002000F0ACF8002000F0EA
:1007A800BDF8C04600E0C046C046BD4602B080BDA8
:1007B80080B582B000AF0200FB1D1A70FB1D1B78CC
:1007C800052B46D89A00254BD3181B689F46012154
:1007D8000520FFF735FF3CE001210220FFF730FF3D
:1007E800012000F073F834E001210320FFF728FF0F
:1007F800012000F06BF8012000F07CF829E00121CD
:100808000420FFF71DFF012000F060F8012000F030
:1008180071F81EE001210120FFF712FF012000F00E
:1008280055F8012000F066F8012000F03BF810E0D0
:1008380000F018F8002000F049F8002000F05AF8FD
:10084800002000F02FF8064B0121180000F078F87E
:10085800C046C046BD4602B080BDC046AC1A0008BE
:100868003C00002080B500AF0B49A023DB05002227
:10087800180000F07DFB094B00228921180000F0C8
:1008880077FBC0231B0206480022190000F070FB0A
:10089800C046BD4680BDC04619080000000400508F
:1008A8000008005080B582B000AF0200FB1D1A702E
:1008B800FB1D1B7804481A00802100F059FBC04634
:1008C800BD4602B080BDC0460004005080B582B06D
:1008D80000AF0200FB1D1A70FB1D1A7880231B0253
:1008E8000348190000F044FBC046BD4602B080BD75
:1008F8000008005080B582B000AF0200FB1D1A70DE
:10090800FB1D1B7804481A00082100F031FBC04683
:10091800BD4602B080BDC0460004005080B582B01C
:1009280000AF0200FB1D1A70FB1D1A78A023DB051F
:100938000821180000F01CFBC046BD4602B080BD6F
:1009480080B582B000AF78600A00FB1C1A707B6823
:100958001B78002B13D07B681B690B4A134004D506
:10096800013B0222524213430133DAB2FB1C1B78CB
:1009780011001800FFF764FE7B6800221A70C04659
:10098800BD4602B080BDC046010000800D488546C6
:10099800FFF720FE0C480D490D4A002302E0D45809
:1009A800C4500433C4188C42F9D30A4A0A4C0023B1
:1009B80001E013600432A242FBD301F017F8FFF7FD
:1009C80027FCFEE700200020000000200C0000208B
:1009D800CC1A00080C00002054000020FEE700009C
:1009E80080B582B000AFFB1D00221A700B4B1A684D
:1009F8000A4B802149000A431A60032000F010F8CE
:100A0800031E03D0FB1D01221A7001E0FFF754FDFD
:100A1800FB1D1B781800BD4602B080BD00200240B7
:100A280090B585B000AF78600F23FB1800221A70CC
:100A38001D4B1B78002B2BD01C4B1C681A4B1B78AA
:100A48001900FA239800FFF757FB0300190020004C
:100A5800FFF752FB0300180000F019F9031E12D12A
:100A68007B68032B0AD8796801235B4200221800AF
:100A780000F0E8F80E4B7A681A600DE00F23FB18B7
:100A880001221A7008E00F23FB1801221A7003E0F4
:100A98000F23FB1801221A700F23FB181B7818006C
:100AA800BD4605B090BDC0460800002000000020EB
:100AB8000400002080B500AF054B1B781A00054BD9
:100AC8001B68D218034B1A60C046BD4680BDC0469D
:100AD800080000205000002080B500AF024B1B68C2
:100AE8001800BD4680BDC0465000002080B582B0C9
:100AF80000AF0200FB1D1A70FB1D1B787F2B09D865
:100B0800FB1D1B781A001F231A40044B012191403A
:100B18000A001A60C046BD4602B080BD00E100E090
:100B280090B583B000AF02003960FB1D1A70FB1D41
:100B38001B787F2B28D82F4AFB1D1B785BB29B089C
:100B4800C0339B009B58FA1D1278110003220A40FB
:100B5800D200FF2191400A00D2431A4011003B689D
:100B68009B01FF221A40FB1D1B781800032303403A
:100B7800DB009A401F48FB1D1B785BB29B080A43A9
:100B8800C0339B001A5031E01B4AFB1D1B7819002B
:100B98000F230B40083B9B0806339B00D3180433F4
:100BA8001B68FA1D1278110003220A40D200FF21A7
:100BB80091400A00D2431A4011003B689B01FF2272
:100BC8001A40FB1D1B78180003230340DB009A40E2
:100BD8000948FB1D1B781C000F232340083B9B087A
:100BE8000A4306339B00C31804331A60C046BD4647
:100BF80003B090BD00E100E000ED00E080B582B0F8
:100C080000AF78607B685A1E80235B049A4201D348
:100C1800012310E00A4B7A68013A5A6001235B42CB
:100C280003211800FFF77CFF054B00229A60044B54
:100C380007221A6000231800BD4602B080BDC046D6
:100C480010E000E080B584B000AFB9607A600F2191
:100C58007B18021C1A70BA687B181B785BB21100EB
:100C68001800FFF75DFFC046BD4604B080BD80B5E3
:100C780082B000AF0200FB1D1A70FB1D1B785BB22F
:100C88001800FFF733FFC046BD4602B080BD80B5EF
:100C980082B000AF78607B681800FFF7AFFF0300F1
:100CA8001800BD4602B080BD80B586B000AF786040
:100CB800396000237B6147E13B681B6801217A6941
:100CC80091400A001340FB60FB68002B00D138E11B
:100CD8003B685B6803221340012B05D03B685B68C7
:100CE80003221340022B30D17B689B683B617B69F0
:100CF8005B0003229A401300DA433B6913403B61CF
:100D08003B68DA687B695B009A4013003A691343D1
:100D18003B617B683A699A607B685B683B6101224A
:100D28007B699A401300DA433B6913403B613B6897
:100D38005B681B0901221A407B699A4013003A69D3
:100D480013433B617B683A695A603B685B680322DE
:100D58001340032B17D07B68DB683B617B695B0022
:100D680003229A401300DA433B6913403B613B6816
:100D78009A687B695B009A4013003A6913433B61A8
:100D88007B683A69DA603B685B6803221340022B90
:100D980023D17B69DA087B6808329200D3583B611B
:100DA8007B69072213409B000F229A401300DA4305
:100DB8003B6913403B613B681A697B6907210B401B
:100DC8009B009A4013003A6913433B617B69DA0838
:100DD8007B68083292003969D1507B681B683B6197
:100DE8007B695B0003229A401300DA433B69134096
:100DF8003B613B685B6803221A407B695B009A4051
:100E080013003A6913433B617B683A691A603B688F
:100E18005A68C0239B02134000D192E0504A7B6974
:100E28009B0818339B009B583B617B690322134046
:100E3800DB000F229A401300DA433B6913403B6101
:100E48007A68A023DB059A4213D07B68454A93420F
:100E58000DD07B68444A934207D07B68434A93424B
:100E680001D1032306E0052304E0022302E0012365
:100E780000E000237A6903210A40D20093403A69CE
:100E880013433B6136497B699B0818339B003A69D9
:100E98005A50334B1B683B61FB68DA433B6913408C
:100EA8003B613B685A6880235B03134003D03A696F
:100EB800FB6813433B612A4B3A691A60284B5B680D
:100EC8003B61FB68DA433B6913403B613B685A6806
:100ED80080239B03134003D03A69FB6813433B61AB
:100EE8001F4B3A695A601E4A8423D3583B61FB68FA
:100EF800DA433B6913403B613B685A6880239B0295
:100F0800134003D03A69FB6813433B6114498422B8
:100F18003B698B50124A8023D3583B61FB68DA4304
:100F28003B6913403B613B685A6880235B0213406E
:100F380003D03A69FB6813433B61094980223B6946
:100F48008B507B6901337B613B681A687B69DA40A7
:100F5800131E00D0B0E6C046C046BD4606B080BDF0
:100F6800001802400004005000080050000C005017
:100F780080B582B000AF786008001100BB1C021C6D
:100F88001A807B1C0A1C1A707B1C1B78002B04D04F
:100F9800BB1C1A887B689A6103E0BB1C1A887B68B3
:100FA8009A62C046BD4602B080BD000080B582B0DE
:100FB80000AF0200BB1D1A80104BDB68BA1D1288F7
:100FC800134008D00D4BBA1D1288DA60BB1D1B8870
:100FD800180000F015F8094B1B69BA1D1288134058
:100FE80008D0064BBA1D12881A61BB1D1B88180051
:100FF80000F010F8C046BD4602B080BD001802409F
:1010080080B582B000AF0200BB1D1A80C046BD4645
:1010180002B080BD80B582B000AF0200BB1D1A804F
:10102800C046BD4602B080BD80B584B000AF7860D0
:10103800194B1B68194A13401900174B7A680A4361
:101048001A607A6880239B009A421FD1144B1A6851
:1010580013005B009B185B0012491800FFF74CF85F
:1010680003000133FB6008E0FB68002B03D0FB683A
:10107800013BFB6001E0032309E0074B5A69802329
:10108800DB001A408023DB009A42EDD000231800D1
:10109800BD4604B080BDC04600700040FFF9FFFFA8
:1010A8000000002040420F0080B588B000AF786093
:1010B8007B68002B01D10123F3E27B681B680122C6
:1010C800134000D17CE0C34B9B6838221340BB61BE
:1010D800C04BDB68032213407B61BB69102B02D134
:1010E8007B69032B02D0BB69082B0BD1B94B1A685B
:1010F80080239B02134062D07B685B68002B5ED123
:101108000123CEE27B685A6880235B029A4207D1AA
:10111800B04B1A68AF4B802149020A431A6020E09D
:101128007B685A68A023DB029A420ED1A94B1A6841
:10113800A84B8021C9020A431A60A64B1A68A54B1E
:10114800802149020A431A600BE0A24B1A68A14B9E
:10115800A1490A401A609F4B1A689E4B9F490A4052
:101168001A607B685B68002B14D0FFF7B5FC03009E
:101178003B6108E0FFF7B0FC02003B69D31A642B1F
:1011880001D903238DE2934B1A6880239B021340F5
:10119800F0D015E0FFF7A0FC03003B6108E0FFF783
:1011A8009BFC02003B69D31A642B01D9032378E224
:1011B800884B1A6880239B021340F0D100E0C04698
:1011C8007B681B680222134000D199E0814B9B6821
:1011D80038221340BB617F4BDB68032213407B61DD
:1011E800BB69102B02D17B69022B02D0BB69002B93
:1011F80035D1784B1A688023DB00134005D07B6813
:10120800DB68002B01D101234BE2724B5B68744A07
:10121800134019007B685B691A026E4B0A435A60D7
:10122800BB69002B12D16B4B1B686E4A1340190027
:101238007B681A69674B0A431A60664B1B68DB0AAE
:1012480007221340684ADA40684B1A60684B1B68EB
:101258001800FFF7E5FB031E51D0012321E27B684C
:10126800DB68002B30D05B4B1B685E4A13401900CB
:101278007B681A69574B0A431A60564B1A68554BD4
:10128800802149000A431A60FFF726FC03003B61EE
:1012980008E0FFF721FC02003B69D31A022B01D9B1
:1012A8000323FEE14B4B1A688023DB001340F0D088
:1012B800484B5B684A4A134019007B685B691A020D
:1012C800444B0A435A601BE0424B1A68414B494958
:1012D8000A401A60FFF700FC03003B6108E0FFF7D3
:1012E800FBFB02003B69D31A022B01D90323D8E187
:1012F800384B1A688023DB001340F0D100E0C04669
:101308007B681B680822134047D0324B9B68382201
:101318001340182B0AD12F4B1B6E022213403CD0CE
:101328007B689B69002B38D10123BAE17B689B69F4
:10133800002B19D0274B1A6E264B01210A431A6637
:10134800FFF7CAFB03003B6108E0FFF7C5FB02009B
:101358003B69D31A022B01D90323A2E11D4B1B6E53
:1013680002221340F1D018E01A4B1A6E194B0121D2
:101378008A431A66FFF7B0FB03003B6108E0FFF7FA
:10138800ABFB02003B69D31A022B01D9032388E186
:10139800104B1B6E02221340F1D17B681B6804229C
:1013A800134000D1C6E01F23FB1800221A70094B16
:1013B8009B6838221340202B1ED1064BDB6D02227E
:1013C800134000D1B6E07B689B68002B00D0B1E0E9
:1013D800012366E100100240FFFFFEFFFFFFFBFF55
:1013E800FF80FFFFFFC7FFFF0024F400000000207C
:1013F80004000020FFFEFFFFAC4BDA6B80235B0587
:10140800134001D1012300E00023002B11D0A74B8A
:10141800DA6BA64B802149050A43DA63A34BDA6BE2
:1014280080235B051340FB60FB681F23FB18012228
:101438001A709F4B1A6880235B0013401AD19C4B8B
:101448001A689B4B802149000A431A60FFF744FB46
:1014580003003B6108E0FFF73FFB02003B69D31A3A
:10146800022B01D903231CE1914B1A6880235B00EE
:101478001340F0D07B689B68012B06D18B4BDA6D4B
:101488008A4B01210A43DA651CE07B689B68052BBF
:101498000CD1864BDA6D854B04210A43DA65834B00
:1014A800DA6D824B01210A43DA650BE07F4BDA6D76
:1014B8007E4B01218A43DA657C4BDA6D7B4B042134
:1014C8008A43DA657B689B68002B14D0FFF704FB1E
:1014D80003003B6109E0FFF7FFFA02003B69D31AFA
:1014E800744A934201D90323DBE0704BDB6D02227F
:1014F8001340F0D013E0FFF7EFFA03003B6109E077
:10150800FFF7EAFA02003B69D31A6A4A934201D903
:101518000323C6E0654BDB6D02221340F0D11F2385
:10152800FB181B78012B05D1604BDA6B5F4B6249C6
:101538000A40DA637B68DB69002B00D1B0E05B4BC3
:101548009B6838221340102B00D178E07B68DB6958
:10155800022B53D1554B1A68544B58490A401A600C
:10156800FFF7BAFA03003B6108E0FFF7B5FA02009B
:101578003B69D31A022B01D9032392E04B4B1A681B
:1015880080239B041340F0D1484BDB684C4A13403E
:1015980019007B681A6A7B685B6A1A437B689B6AD6
:1015A8001B021A437B68DB6A1A437B681B6B1A436E
:1015B8003E4B0A43DA603D4B1A683C4B8021490494
:1015C8000A431A60394BDA68384B802149050A43C7
:1015D800DA60FFF781FA03003B6108E0FFF77CFA65
:1015E80002003B69D31A022B01D9032359E02F4B80
:1015F8001A6880239B041340F0D051E02B4B1A68E3
:101608002A4B2E490A401A60FFF766FA03003B612D
:1016180008E0FFF761FA02003B69D31A022B01D9EF
:1016280003233EE0214B1A6880239B041340F0D12A
:101638001E4BDA681D4B23490A40DA6030E07B68AC
:10164800DB69012B01D101232BE0184BDB687B619F
:101658007B6903221A407B681B6A9A421ED17B6908
:1016680070221A407B685B6A9A4217D17A69FE2316
:10167800DB011A407B689B6A1B029A420ED17A6989
:10168800F8239B031A407B68DB6A9A4206D17B6980
:101698005B0F5A077B681B6B9A4201D0012300E05D
:1016A80000231800BD4608B080BDC04600100240A7
:1016B8000070004088130000FFFFFFEFFFFFFFFEF0
:1016C8008C80C11FFCFFFEEF80B584B000AF78604E
:1016D80039607B68002B01D10123E9E0764B1B6858
:1016E800072213403A689A421ED9734B1B68072297
:1016F80093431900704B3A680A431A60FFF7ECF9F4
:101708000300FB6009E0FFF7E7F90200FB68D31A62
:101718006A4A934201D90323CAE0674B1B68072230
:1017280013403A689A42EED17B681B680222134044
:1017380015D07B681B680422134006D0604B9A685A
:101748005F4BE021C9010A439A605D4B9B685D4A83
:10175800134019007B689A68594B0A439A607B6862
:101768001B680122134057D07B685B68012B07D1A7
:10177800534B1A6880239B0213402BD1012397E017
:101788007B685B68022B07D14D4B1A6880239B044A
:1017980013401FD101238BE07B685B68002B07D1C6
:1017A800474B1A688023DB00134013D101237FE0E5
:1017B8007B685B68032B06D1414B1B6E02221340EA
:1017C80008D1012374E03E4BDB6D0222134001D1A6
:1017D80001236DE03A4B9B680722934319007B680D
:1017E8005A68374B0A439A60FFF776F90300FB60A3
:1017F80009E0FFF771F90200FB68D31A2F4A9342F8
:1018080001D9032354E02E4B9B6838221A407B6889
:101818005B68DB009A42ECD1274B1B680722134018
:101828003A689A421ED2244B1B6807229343190038
:10183800214B3A680A431A60FFF74EF90300FB6030
:1018480009E0FFF749F90200FB68D31A1B4A9342E3
:1018580001D903232CE0184B1B68072213403A6870
:101868009A42EED17B681B680422134009D0144BBE
:101878009B68154A134019007B68DA68104B0A43C5
:101888009A6000F029F801000D4B9B681B0A0F2293
:101898001A400E4B9200D3581F2213400A00DA4018
:1018A8000B4B1A600B4B1B681800FFF7B9F80300C5
:1018B8001800BD4604B080BD002002408813000017
:1018C80000100240FFF0FFFFFF8FFFFF541A0008CF
:1018D800000000200400002080B586B000AF3C4B1B
:1018E8009B68382213400FD1394B1B68DB0A07224B
:1018F800134001229A4013003B6039683548FEF7CF
:10190800FBFB03003B615DE0314B9B6838221340D1
:10191800082B02D1304B3B6154E02D4B9B68382299
:101928001340102B38D12A4BDB6803221340FB608D
:10193800274BDB681B09072213400133BB60FB6898
:10194800032B0DD1B9682448FEF7D6FB0300190014
:101958001F4BDB681B0A7F2213404B437B610DE062
:10196800B9681C48FEF7C8FB03001900184BDB6870
:101978001B0A7F2213404B437B61C046144BDB6834
:101988005B0F0722134001337B6079687869FEF7A3
:10199800B3FB03003B6115E00D4B9B6838221340F5
:1019A800202B03D180231B023B610BE0084B9B6873
:1019B80038221340182B03D1FA23DB013B6101E0E5
:1019C80000233B613B691800BD4606B080BDC04698
:1019D800001002400024F40000127A00030082186C
:1019E800934200D1704719700133F9E770B50026AA
:1019F8000C4C0D4D641BA410A64209D1002600F022
:101A080019F80A4C0A4D641BA410A64205D170BDF2
:101A1800B300EB5898470136EEE7B300EB58984708
:101A28000136F2E7C41A0008C41A0008C81A0008E8
:101A3800C41A0008F8B5C046F8BC08BC9E467047F2
:0C1A4800F8B5C046F8BC08BC9E467047CC
:101A54000000000000000000000000000000000082
:101A64000000000000000000000000000000000072
:101A74000100000002000000030000000400000058
:101A84000600000007000000080000000900000034
:101A9400EC0600087006000892060008B606000866
:101AA400CA060008DC06000838080008D607000843
:101AB400E0070008F0070008060800081C080008F2
:041AC400E100000835
:041AC800B900000859
:0C1ACC000024F4000400000001000000F1
:040000050800099551
:00000001FF
